{
  "_format": "hh-sol-artifact-1",
  "contractName": "CourseMarket",
  "sourceName": "contracts/CourseMarket.sol",
  "abi": [
    {
      "inputs": [],
      "stateMutability": "nonpayable",
      "type": "constructor"
    },
    {
      "anonymous": false,
      "inputs": [
        {
          "indexed": true,
          "internalType": "address",
          "name": "buyer",
          "type": "address"
        },
        {
          "indexed": true,
          "internalType": "uint256",
          "name": "courseId",
          "type": "uint256"
        },
        {
          "indexed": false,
          "internalType": "string",
          "name": "web2CourseId",
          "type": "string"
        }
      ],
      "name": "CoursePurchased",
      "type": "event"
    },
    {
      "anonymous": false,
      "inputs": [
        {
          "indexed": true,
          "internalType": "address",
          "name": "previousOwner",
          "type": "address"
        },
        {
          "indexed": true,
          "internalType": "address",
          "name": "newOwner",
          "type": "address"
        }
      ],
      "name": "OwnershipTransferred",
      "type": "event"
    },
    {
      "inputs": [
        {
          "internalType": "string",
          "name": "web2CourseId",
          "type": "string"
        },
        {
          "internalType": "string",
          "name": "name",
          "type": "string"
        },
        {
          "internalType": "uint256",
          "name": "price",
          "type": "uint256"
        }
      ],
      "name": "addCourse",
      "outputs": [],
      "stateMutability": "nonpayable",
      "type": "function"
    },
    {
      "inputs": [],
      "name": "courseCount",
      "outputs": [
        {
          "internalType": "uint256",
          "name": "",
          "type": "uint256"
        }
      ],
      "stateMutability": "view",
      "type": "function"
    },
    {
      "inputs": [
        {
          "internalType": "uint256",
          "name": "",
          "type": "uint256"
        }
      ],
      "name": "courses",
      "outputs": [
        {
          "internalType": "string",
          "name": "web2CourseId",
          "type": "string"
        },
        {
          "internalType": "string",
          "name": "name",
          "type": "string"
        },
        {
          "internalType": "uint256",
          "name": "price",
          "type": "uint256"
        },
        {
          "internalType": "bool",
          "name": "isActive",
          "type": "bool"
        },
        {
          "internalType": "address",
          "name": "creator",
          "type": "address"
        }
      ],
      "stateMutability": "view",
      "type": "function"
    },
    {
      "inputs": [
        {
          "internalType": "address",
          "name": "user",
          "type": "address"
        },
        {
          "internalType": "string",
          "name": "web2CourseId",
          "type": "string"
        }
      ],
      "name": "hasCourse",
      "outputs": [
        {
          "internalType": "bool",
          "name": "",
          "type": "bool"
        }
      ],
      "stateMutability": "view",
      "type": "function"
    },
    {
      "inputs": [],
      "name": "owner",
      "outputs": [
        {
          "internalType": "address",
          "name": "",
          "type": "address"
        }
      ],
      "stateMutability": "view",
      "type": "function"
    },
    {
      "inputs": [
        {
          "internalType": "string",
          "name": "web2CourseId",
          "type": "string"
        }
      ],
      "name": "purchaseCourse",
      "outputs": [],
      "stateMutability": "nonpayable",
      "type": "function"
    },
    {
      "inputs": [],
      "name": "renounceOwnership",
      "outputs": [],
      "stateMutability": "nonpayable",
      "type": "function"
    },
    {
      "inputs": [
        {
          "internalType": "address",
          "name": "newOwner",
          "type": "address"
        }
      ],
      "name": "transferOwnership",
      "outputs": [],
      "stateMutability": "nonpayable",
      "type": "function"
    },
    {
      "inputs": [
        {
          "internalType": "address",
          "name": "",
          "type": "address"
        },
        {
          "internalType": "uint256",
          "name": "",
          "type": "uint256"
        }
      ],
      "name": "userCourses",
      "outputs": [
        {
          "internalType": "bool",
          "name": "",
          "type": "bool"
        }
      ],
      "stateMutability": "view",
      "type": "function"
    },
    {
      "inputs": [
        {
          "internalType": "string",
          "name": "",
          "type": "string"
        }
      ],
      "name": "web2ToCourseId",
      "outputs": [
        {
          "internalType": "uint256",
          "name": "",
          "type": "uint256"
        }
      ],
      "stateMutability": "view",
      "type": "function"
    },
    {
      "inputs": [],
      "name": "yiDengToken",
      "outputs": [
        {
          "internalType": "contract YiDengToken",
          "name": "",
          "type": "address"
        }
      ],
      "stateMutability": "view",
      "type": "function"
    }
  ],
  "bytecode": "0x608060405234801561001057600080fd5b5061002d61002261008760201b60201c565b61008f60201b60201c565b736fbaa587654b7ea616432e1a6d0780d3d1af0955600160006101000a81548173ffffffffffffffffffffffffffffffffffffffff021916908373ffffffffffffffffffffffffffffffffffffffff160217905550610153565b600033905090565b60008060009054906101000a900473ffffffffffffffffffffffffffffffffffffffff169050816000806101000a81548173ffffffffffffffffffffffffffffffffffffffff021916908373ffffffffffffffffffffffffffffffffffffffff1602179055508173ffffffffffffffffffffffffffffffffffffffff168173ffffffffffffffffffffffffffffffffffffffff167f8be0079c531659141344cd1fd0a4f28419497f9722a3daafe3b4186f6b6457e060405160405180910390a35050565b61282e806101626000396000f3fe608060405234801561001057600080fd5b50600436106100a95760003560e01c80638da5cb5b116100715780638da5cb5b1461012c57806393a05c201461014a57806396f979d21461017a5780639b84006e146101ae578063dd403ce1146101de578063f2fde38b1461020e576100a9565b80630262232b146100ae57806344a8ef19146100cc57806366055159146100e857806367589b6f14610106578063715018a614610122575b600080fd5b6100b661022a565b6040516100c39190611836565b60405180910390f35b6100e660048036038101906100e191906119e1565b610250565b005b6100f0610434565b6040516100fd9190611a7b565b60405180910390f35b610120600480360381019061011b9190611a96565b61043a565b005b61012a610fb3565b005b610134610fc7565b6040516101419190611b00565b60405180910390f35b610164600480360381019061015f9190611b47565b610ff0565b6040516101719190611ba2565b60405180910390f35b610194600480360381019061018f9190611bbd565b61101f565b6040516101a5959493929190611c69565b60405180910390f35b6101c860048036038101906101c39190611a96565b611192565b6040516101d59190611a7b565b60405180910390f35b6101f860048036038101906101f39190611cca565b6111c0565b6040516102059190611ba2565b60405180910390f35b61022860048036038101906102239190611d26565b61128e565b005b600160009054906101000a900473ffffffffffffffffffffffffffffffffffffffff1681565b610258611311565b600083511161029c576040517f08c379a000000000000000000000000000000000000000000000000000000000815260040161029390611d9f565b60405180910390fd5b60006003846040516102ae9190611dfb565b908152602001604051809103902054146102fd576040517f08c379a00000000000000000000000000000000000000000000000000000000081526004016102f490611e5e565b60405180910390fd5b6005600081548092919061031090611ead565b91905055506040518060a001604052808481526020018381526020018281526020016001151581526020013373ffffffffffffffffffffffffffffffffffffffff16815250600260006005548152602001908152602001600020600082015181600001908161037f91906120f7565b50602082015181600101908161039591906120f7565b506040820151816002015560608201518160030160006101000a81548160ff02191690831515021790555060808201518160030160016101000a81548173ffffffffffffffffffffffffffffffffffffffff021916908373ffffffffffffffffffffffffffffffffffffffff16021790555090505060055460038460405161041d9190611dfb565b908152602001604051809103902081905550505050565b60055481565b600060038260405161044c9190611dfb565b908152602001604051809103902054905061049c6040518060400160405280600881526020017f636f7572736549640000000000000000000000000000000000000000000000008152508261138f565b600081116104df576040517f08c379a00000000000000000000000000000000000000000000000000000000081526004016104d690612215565b60405180910390fd5b6000600260008381526020019081526020016000206040518060a001604052908160008201805461050f90611f24565b80601f016020809104026020016040519081016040528092919081815260200182805461053b90611f24565b80156105885780601f1061055d57610100808354040283529160200191610588565b820191906000526020600020905b81548152906001019060200180831161056b57829003601f168201915b505050505081526020016001820180546105a190611f24565b80601f01602080910402602001604051908101604052809291908181526020018280546105cd90611f24565b801561061a5780601f106105ef5761010080835404028352916020019161061a565b820191906000526020600020905b8154815290600101906020018083116105fd57829003601f168201915b50505050508152602001600282015481526020016003820160009054906101000a900460ff161515151581526020016003820160019054906101000a900473ffffffffffffffffffffffffffffffffffffffff1673ffffffffffffffffffffffffffffffffffffffff1673ffffffffffffffffffffffffffffffffffffffff168152505090506106e86040518060400160405280600181526020017f31000000000000000000000000000000000000000000000000000000000000008152508260800151836040015161142b565b806060015161072c576040517f08c379a000000000000000000000000000000000000000000000000000000000815260040161072390612281565b60405180910390fd5b61076a6040518060400160405280600181526020017f32000000000000000000000000000000000000000000000000000000000000008152506114ca565b600460003373ffffffffffffffffffffffffffffffffffffffff1673ffffffffffffffffffffffffffffffffffffffff168152602001908152602001600020600083815260200190815260200160002060009054906101000a900460ff1615610808576040517f08c379a00000000000000000000000000000000000000000000000000000000081526004016107ff906122ed565b60405180910390fd5b6108466040518060400160405280600181526020017f33000000000000000000000000000000000000000000000000000000000000008152506114ca565b826040516020016108579190611dfb565b6040516020818303038152906040528051906020012081600001516040516020016108829190611dfb565b60405160208183030381529060405280519060200120146108d8576040517f08c379a00000000000000000000000000000000000000000000000000000000081526004016108cf90612359565b60405180910390fd5b6109166040518060400160405280600181526020017f34000000000000000000000000000000000000000000000000000000000000008152506114ca565b6109556040518060400160405280600a81526020017f6d73672e73656e6465720000000000000000000000000000000000000000000081525033611563565b610a276040518060400160405280600b81526020017f796944656e67546f6b656e000000000000000000000000000000000000000000815250600160009054906101000a900473ffffffffffffffffffffffffffffffffffffffff1673ffffffffffffffffffffffffffffffffffffffff1663313ce5676040518163ffffffff1660e01b8152600401602060405180830381865afa1580156109fb573d6000803e3d6000fd5b505050506040513d601f19601f82011682018060405250810190610a1f91906123b2565b60ff1661138f565b600160009054906101000a900473ffffffffffffffffffffffffffffffffffffffff1673ffffffffffffffffffffffffffffffffffffffff1663095ea7b33083604001516040518363ffffffff1660e01b8152600401610a889291906123df565b6020604051808303816000875af1158015610aa7573d6000803e3d6000fd5b505050506040513d601f19601f82011682018060405250810190610acb9190612434565b50610b0a6040518060400160405280600781526020017f617070726f7665000000000000000000000000000000000000000000000000008152506114ca565b6000600160009054906101000a900473ffffffffffffffffffffffffffffffffffffffff1673ffffffffffffffffffffffffffffffffffffffff1663dd62ed3e33306040518363ffffffff1660e01b8152600401610b69929190612461565b602060405180830381865afa158015610b86573d6000803e3d6000fd5b505050506040513d601f19601f82011682018060405250810190610baa919061249f565b9050610beb6040518060400160405280600a81526020017f416c6c6f77616e63653a000000000000000000000000000000000000000000008152508261138f565b8160400151600160009054906101000a900473ffffffffffffffffffffffffffffffffffffffff1673ffffffffffffffffffffffffffffffffffffffff1663dd62ed3e33306040518363ffffffff1660e01b8152600401610c4d929190612461565b602060405180830381865afa158015610c6a573d6000803e3d6000fd5b505050506040513d601f19601f82011682018060405250810190610c8e919061249f565b1015610ccf576040517f08c379a0000000000000000000000000000000000000000000000000000000008152600401610cc690612518565b60405180910390fd5b610d0d6040518060400160405280600181526020017f35000000000000000000000000000000000000000000000000000000000000008152506114ca565b6000600160009054906101000a900473ffffffffffffffffffffffffffffffffffffffff1673ffffffffffffffffffffffffffffffffffffffff166323b872dd33856080015186604001516040518463ffffffff1660e01b8152600401610d7693929190612538565b6020604051808303816000875af1158015610d95573d6000803e3d6000fd5b505050506040513d601f19601f82011682018060405250810190610db99190612434565b9050610dfa6040518060400160405280600181526020017f3600000000000000000000000000000000000000000000000000000000000000815250826115ff565b80610e3a576040517f08c379a0000000000000000000000000000000000000000000000000000000008152600401610e31906125bb565b60405180910390fd5b610e786040518060400160405280600181526020017f37000000000000000000000000000000000000000000000000000000000000008152506114ca565b6001600460003373ffffffffffffffffffffffffffffffffffffffff1673ffffffffffffffffffffffffffffffffffffffff168152602001908152602001600020600086815260200190815260200160002060006101000a81548160ff021916908315150217905550610f1f6040518060400160405280600181526020017f38000000000000000000000000000000000000000000000000000000000000008152506114ca565b833373ffffffffffffffffffffffffffffffffffffffff167f1a04f8d389f43beccf2cc32092c53cb34d57ec70fd68693db2bfe79336db783c87604051610f6691906125db565b60405180910390a3610fac6040518060400160405280600181526020017f39000000000000000000000000000000000000000000000000000000000000008152506114ca565b5050505050565b610fbb611311565b610fc5600061169b565b565b60008060009054906101000a900473ffffffffffffffffffffffffffffffffffffffff16905090565b60046020528160005260406000206020528060005260406000206000915091509054906101000a900460ff1681565b600260205280600052604060002060009150905080600001805461104290611f24565b80601f016020809104026020016040519081016040528092919081815260200182805461106e90611f24565b80156110bb5780601f10611090576101008083540402835291602001916110bb565b820191906000526020600020905b81548152906001019060200180831161109e57829003601f168201915b5050505050908060010180546110d090611f24565b80601f01602080910402602001604051908101604052809291908181526020018280546110fc90611f24565b80156111495780601f1061111e57610100808354040283529160200191611149565b820191906000526020600020905b81548152906001019060200180831161112c57829003601f168201915b5050505050908060020154908060030160009054906101000a900460ff16908060030160019054906101000a900473ffffffffffffffffffffffffffffffffffffffff16905085565b6003818051602081018201805184825260208301602085012081835280955050505050506000915090505481565b6000806003836040516111d39190611dfb565b908152602001604051809103902054905060008111611227576040517f08c379a000000000000000000000000000000000000000000000000000000000815260040161121e90612215565b60405180910390fd5b600460008573ffffffffffffffffffffffffffffffffffffffff1673ffffffffffffffffffffffffffffffffffffffff168152602001908152602001600020600082815260200190815260200160002060009054906101000a900460ff1691505092915050565b611296611311565b600073ffffffffffffffffffffffffffffffffffffffff168173ffffffffffffffffffffffffffffffffffffffff1603611305576040517f08c379a00000000000000000000000000000000000000000000000000000000081526004016112fc9061266f565b60405180910390fd5b61130e8161169b565b50565b61131961175f565b73ffffffffffffffffffffffffffffffffffffffff16611337610fc7565b73ffffffffffffffffffffffffffffffffffffffff161461138d576040517f08c379a0000000000000000000000000000000000000000000000000000000008152600401611384906126db565b60405180910390fd5b565b61142782826040516024016113a59291906126fb565b6040516020818303038152906040527fb60e72cc000000000000000000000000000000000000000000000000000000007bffffffffffffffffffffffffffffffffffffffffffffffffffffffff19166020820180517bffffffffffffffffffffffffffffffffffffffffffffffffffffffff8381831617835250505050611767565b5050565b6114c58383836040516024016114439392919061272b565b6040516020818303038152906040527f0d26b925000000000000000000000000000000000000000000000000000000007bffffffffffffffffffffffffffffffffffffffffffffffffffffffff19166020820180517bffffffffffffffffffffffffffffffffffffffffffffffffffffffff8381831617835250505050611767565b505050565b611560816040516024016114de91906125db565b6040516020818303038152906040527f41304fac000000000000000000000000000000000000000000000000000000007bffffffffffffffffffffffffffffffffffffffffffffffffffffffff19166020820180517bffffffffffffffffffffffffffffffffffffffffffffffffffffffff8381831617835250505050611767565b50565b6115fb8282604051602401611579929190612769565b6040516020818303038152906040527f319af333000000000000000000000000000000000000000000000000000000007bffffffffffffffffffffffffffffffffffffffffffffffffffffffff19166020820180517bffffffffffffffffffffffffffffffffffffffffffffffffffffffff8381831617835250505050611767565b5050565b6116978282604051602401611615929190612799565b6040516020818303038152906040527fc3b55635000000000000000000000000000000000000000000000000000000007bffffffffffffffffffffffffffffffffffffffffffffffffffffffff19166020820180517bffffffffffffffffffffffffffffffffffffffffffffffffffffffff8381831617835250505050611767565b5050565b60008060009054906101000a900473ffffffffffffffffffffffffffffffffffffffff169050816000806101000a81548173ffffffffffffffffffffffffffffffffffffffff021916908373ffffffffffffffffffffffffffffffffffffffff1602179055508173ffffffffffffffffffffffffffffffffffffffff168173ffffffffffffffffffffffffffffffffffffffff167f8be0079c531659141344cd1fd0a4f28419497f9722a3daafe3b4186f6b6457e060405160405180910390a35050565b600033905090565b61177e816117766117816117a2565b63ffffffff16565b50565b60006a636f6e736f6c652e6c6f679050600080835160208501845afa505050565b6117ad819050919050565b6117b56127c9565b565b600073ffffffffffffffffffffffffffffffffffffffff82169050919050565b6000819050919050565b60006117fc6117f76117f2846117b7565b6117d7565b6117b7565b9050919050565b600061180e826117e1565b9050919050565b600061182082611803565b9050919050565b61183081611815565b82525050565b600060208201905061184b6000830184611827565b92915050565b6000604051905090565b600080fd5b600080fd5b600080fd5b600080fd5b6000601f19601f8301169050919050565b7f4e487b7100000000000000000000000000000000000000000000000000000000600052604160045260246000fd5b6118b88261186f565b810181811067ffffffffffffffff821117156118d7576118d6611880565b5b80604052505050565b60006118ea611851565b90506118f682826118af565b919050565b600067ffffffffffffffff82111561191657611915611880565b5b61191f8261186f565b9050602081019050919050565b82818337600083830152505050565b600061194e611949846118fb565b6118e0565b90508281526020810184848401111561196a5761196961186a565b5b61197584828561192c565b509392505050565b600082601f83011261199257611991611865565b5b81356119a284826020860161193b565b91505092915050565b6000819050919050565b6119be816119ab565b81146119c957600080fd5b50565b6000813590506119db816119b5565b92915050565b6000806000606084860312156119fa576119f961185b565b5b600084013567ffffffffffffffff811115611a1857611a17611860565b5b611a248682870161197d565b935050602084013567ffffffffffffffff811115611a4557611a44611860565b5b611a518682870161197d565b9250506040611a62868287016119cc565b9150509250925092565b611a75816119ab565b82525050565b6000602082019050611a906000830184611a6c565b92915050565b600060208284031215611aac57611aab61185b565b5b600082013567ffffffffffffffff811115611aca57611ac9611860565b5b611ad68482850161197d565b91505092915050565b6000611aea826117b7565b9050919050565b611afa81611adf565b82525050565b6000602082019050611b156000830184611af1565b92915050565b611b2481611adf565b8114611b2f57600080fd5b50565b600081359050611b4181611b1b565b92915050565b60008060408385031215611b5e57611b5d61185b565b5b6000611b6c85828601611b32565b9250506020611b7d858286016119cc565b9150509250929050565b60008115159050919050565b611b9c81611b87565b82525050565b6000602082019050611bb76000830184611b93565b92915050565b600060208284031215611bd357611bd261185b565b5b6000611be1848285016119cc565b91505092915050565b600081519050919050565b600082825260208201905092915050565b60005b83811015611c24578082015181840152602081019050611c09565b60008484015250505050565b6000611c3b82611bea565b611c458185611bf5565b9350611c55818560208601611c06565b611c5e8161186f565b840191505092915050565b600060a0820190508181036000830152611c838188611c30565b90508181036020830152611c978187611c30565b9050611ca66040830186611a6c565b611cb36060830185611b93565b611cc06080830184611af1565b9695505050505050565b60008060408385031215611ce157611ce061185b565b5b6000611cef85828601611b32565b925050602083013567ffffffffffffffff811115611d1057611d0f611860565b5b611d1c8582860161197d565b9150509250929050565b600060208284031215611d3c57611d3b61185b565b5b6000611d4a84828501611b32565b91505092915050565b7f5765623220636f757273652049442063616e6e6f7420626520656d7074790000600082015250565b6000611d89601e83611bf5565b9150611d9482611d53565b602082019050919050565b60006020820190508181036000830152611db881611d7c565b9050919050565b600081905092915050565b6000611dd582611bea565b611ddf8185611dbf565b9350611def818560208601611c06565b80840191505092915050565b6000611e078284611dca565b915081905092915050565b7f436f7572736520616c7265616479206578697374730000000000000000000000600082015250565b6000611e48601583611bf5565b9150611e5382611e12565b602082019050919050565b60006020820190508181036000830152611e7781611e3b565b9050919050565b7f4e487b7100000000000000000000000000000000000000000000000000000000600052601160045260246000fd5b6000611eb8826119ab565b91507fffffffffffffffffffffffffffffffffffffffffffffffffffffffffffffffff8203611eea57611ee9611e7e565b5b600182019050919050565b7f4e487b7100000000000000000000000000000000000000000000000000000000600052602260045260246000fd5b60006002820490506001821680611f3c57607f821691505b602082108103611f4f57611f4e611ef5565b5b50919050565b60008190508160005260206000209050919050565b60006020601f8301049050919050565b600082821b905092915050565b600060088302611fb77fffffffffffffffffffffffffffffffffffffffffffffffffffffffffffffffff82611f7a565b611fc18683611f7a565b95508019841693508086168417925050509392505050565b6000611ff4611fef611fea846119ab565b6117d7565b6119ab565b9050919050565b6000819050919050565b61200e83611fd9565b61202261201a82611ffb565b848454611f87565b825550505050565b600090565b61203761202a565b612042818484612005565b505050565b5b818110156120665761205b60008261202f565b600181019050612048565b5050565b601f8211156120ab5761207c81611f55565b61208584611f6a565b81016020851015612094578190505b6120a86120a085611f6a565b830182612047565b50505b505050565b600082821c905092915050565b60006120ce600019846008026120b0565b1980831691505092915050565b60006120e783836120bd565b9150826002028217905092915050565b61210082611bea565b67ffffffffffffffff81111561211957612118611880565b5b6121238254611f24565b61212e82828561206a565b600060209050601f831160018114612161576000841561214f578287015190505b61215985826120db565b8655506121c1565b601f19841661216f86611f55565b60005b8281101561219757848901518255600182019150602085019450602081019050612172565b868310156121b457848901516121b0601f8916826120bd565b8355505b6001600288020188555050505b505050505050565b7f436f7572736520646f6573206e6f742065786973740000000000000000000000600082015250565b60006121ff601583611bf5565b915061220a826121c9565b602082019050919050565b6000602082019050818103600083015261222e816121f2565b9050919050565b7f436f75727365206e6f7420616374697665000000000000000000000000000000600082015250565b600061226b601183611bf5565b915061227682612235565b602082019050919050565b6000602082019050818103600083015261229a8161225e565b9050919050565b7f416c726561647920707572636861736564000000000000000000000000000000600082015250565b60006122d7601183611bf5565b91506122e2826122a1565b602082019050919050565b60006020820190508181036000830152612306816122ca565b9050919050565b7f436f75727365204944206d69736d617463680000000000000000000000000000600082015250565b6000612343601283611bf5565b915061234e8261230d565b602082019050919050565b6000602082019050818103600083015261237281612336565b9050919050565b600060ff82169050919050565b61238f81612379565b811461239a57600080fd5b50565b6000815190506123ac81612386565b92915050565b6000602082840312156123c8576123c761185b565b5b60006123d68482850161239d565b91505092915050565b60006040820190506123f46000830185611af1565b6124016020830184611a6c565b9392505050565b61241181611b87565b811461241c57600080fd5b50565b60008151905061242e81612408565b92915050565b60006020828403121561244a5761244961185b565b5b60006124588482850161241f565b91505092915050565b60006040820190506124766000830185611af1565b6124836020830184611af1565b9392505050565b600081519050612499816119b5565b92915050565b6000602082840312156124b5576124b461185b565b5b60006124c38482850161248a565b91505092915050565b7f496e73756666696369656e7420746f6b656e20616c6c6f77616e636500000000600082015250565b6000612502601c83611bf5565b915061250d826124cc565b602082019050919050565b60006020820190508181036000830152612531816124f5565b9050919050565b600060608201905061254d6000830186611af1565b61255a6020830185611af1565b6125676040830184611a6c565b949350505050565b7f546f6b656e207472616e73666572206661696c65640000000000000000000000600082015250565b60006125a5601583611bf5565b91506125b08261256f565b602082019050919050565b600060208201905081810360008301526125d481612598565b9050919050565b600060208201905081810360008301526125f58184611c30565b905092915050565b7f4f776e61626c653a206e6577206f776e657220697320746865207a65726f206160008201527f6464726573730000000000000000000000000000000000000000000000000000602082015250565b6000612659602683611bf5565b9150612664826125fd565b604082019050919050565b600060208201905081810360008301526126888161264c565b9050919050565b7f4f776e61626c653a2063616c6c6572206973206e6f7420746865206f776e6572600082015250565b60006126c5602083611bf5565b91506126d08261268f565b602082019050919050565b600060208201905081810360008301526126f4816126b8565b9050919050565b600060408201905081810360008301526127158185611c30565b90506127246020830184611a6c565b9392505050565b600060608201905081810360008301526127458186611c30565b90506127546020830185611af1565b6127616040830184611a6c565b949350505050565b600060408201905081810360008301526127838185611c30565b90506127926020830184611af1565b9392505050565b600060408201905081810360008301526127b38185611c30565b90506127c26020830184611b93565b9392505050565b7f4e487b7100000000000000000000000000000000000000000000000000000000600052605160045260246000fdfea2646970667358221220189073517bdd55d0928f5825f168bfb97d136894875be7133fbf57efded0bfba64736f6c634300081c0033",
  "linkReferences": {},
  "deployedLinkReferences": {}
}