{
  "_format": "hh-sol-artifact-1",
  "contractName": "CourseCertificate",
  "sourceName": "contracts/CourseCertificate.sol",
  "abi": [
    {
      "inputs": [],
      "stateMutability": "nonpayable",
      "type": "constructor"
    },
    {
      "anonymous": false,
      "inputs": [
        {
          "indexed": true,
          "internalType": "address",
          "name": "owner",
          "type": "address"
        },
        {
          "indexed": true,
          "internalType": "address",
          "name": "approved",
          "type": "address"
        },
        {
          "indexed": true,
          "internalType": "uint256",
          "name": "tokenId",
          "type": "uint256"
        }
      ],
      "name": "Approval",
      "type": "event"
    },
    {
      "anonymous": false,
      "inputs": [
        {
          "indexed": true,
          "internalType": "address",
          "name": "owner",
          "type": "address"
        },
        {
          "indexed": true,
          "internalType": "address",
          "name": "operator",
          "type": "address"
        },
        {
          "indexed": false,
          "internalType": "bool",
          "name": "approved",
          "type": "bool"
        }
      ],
      "name": "ApprovalForAll",
      "type": "event"
    },
    {
      "anonymous": false,
      "inputs": [
        {
          "indexed": true,
          "internalType": "uint256",
          "name": "tokenId",
          "type": "uint256"
        },
        {
          "indexed": false,
          "internalType": "string",
          "name": "web2CourseId",
          "type": "string"
        },
        {
          "indexed": true,
          "internalType": "address",
          "name": "student",
          "type": "address"
        }
      ],
      "name": "CertificateMinted",
      "type": "event"
    },
    {
      "anonymous": false,
      "inputs": [
        {
          "indexed": true,
          "internalType": "bytes32",
          "name": "role",
          "type": "bytes32"
        },
        {
          "indexed": true,
          "internalType": "bytes32",
          "name": "previousAdminRole",
          "type": "bytes32"
        },
        {
          "indexed": true,
          "internalType": "bytes32",
          "name": "newAdminRole",
          "type": "bytes32"
        }
      ],
      "name": "RoleAdminChanged",
      "type": "event"
    },
    {
      "anonymous": false,
      "inputs": [
        {
          "indexed": true,
          "internalType": "bytes32",
          "name": "role",
          "type": "bytes32"
        },
        {
          "indexed": true,
          "internalType": "address",
          "name": "account",
          "type": "address"
        },
        {
          "indexed": true,
          "internalType": "address",
          "name": "sender",
          "type": "address"
        }
      ],
      "name": "RoleGranted",
      "type": "event"
    },
    {
      "anonymous": false,
      "inputs": [
        {
          "indexed": true,
          "internalType": "bytes32",
          "name": "role",
          "type": "bytes32"
        },
        {
          "indexed": true,
          "internalType": "address",
          "name": "account",
          "type": "address"
        },
        {
          "indexed": true,
          "internalType": "address",
          "name": "sender",
          "type": "address"
        }
      ],
      "name": "RoleRevoked",
      "type": "event"
    },
    {
      "anonymous": false,
      "inputs": [
        {
          "indexed": true,
          "internalType": "address",
          "name": "from",
          "type": "address"
        },
        {
          "indexed": true,
          "internalType": "address",
          "name": "to",
          "type": "address"
        },
        {
          "indexed": true,
          "internalType": "uint256",
          "name": "tokenId",
          "type": "uint256"
        }
      ],
      "name": "Transfer",
      "type": "event"
    },
    {
      "inputs": [],
      "name": "DEFAULT_ADMIN_ROLE",
      "outputs": [
        {
          "internalType": "bytes32",
          "name": "",
          "type": "bytes32"
        }
      ],
      "stateMutability": "view",
      "type": "function"
    },
    {
      "inputs": [],
      "name": "MINTER_ROLE",
      "outputs": [
        {
          "internalType": "bytes32",
          "name": "",
          "type": "bytes32"
        }
      ],
      "stateMutability": "view",
      "type": "function"
    },
    {
      "inputs": [
        {
          "internalType": "address",
          "name": "to",
          "type": "address"
        },
        {
          "internalType": "uint256",
          "name": "tokenId",
          "type": "uint256"
        }
      ],
      "name": "approve",
      "outputs": [],
      "stateMutability": "nonpayable",
      "type": "function"
    },
    {
      "inputs": [
        {
          "internalType": "address",
          "name": "owner",
          "type": "address"
        }
      ],
      "name": "balanceOf",
      "outputs": [
        {
          "internalType": "uint256",
          "name": "",
          "type": "uint256"
        }
      ],
      "stateMutability": "view",
      "type": "function"
    },
    {
      "inputs": [
        {
          "internalType": "uint256",
          "name": "",
          "type": "uint256"
        }
      ],
      "name": "certificates",
      "outputs": [
        {
          "internalType": "string",
          "name": "web2CourseId",
          "type": "string"
        },
        {
          "internalType": "address",
          "name": "student",
          "type": "address"
        },
        {
          "internalType": "uint256",
          "name": "timestamp",
          "type": "uint256"
        },
        {
          "internalType": "string",
          "name": "metadataURI",
          "type": "string"
        }
      ],
      "stateMutability": "view",
      "type": "function"
    },
    {
      "inputs": [
        {
          "internalType": "uint256",
          "name": "tokenId",
          "type": "uint256"
        }
      ],
      "name": "getApproved",
      "outputs": [
        {
          "internalType": "address",
          "name": "",
          "type": "address"
        }
      ],
      "stateMutability": "view",
      "type": "function"
    },
    {
      "inputs": [
        {
          "internalType": "bytes32",
          "name": "role",
          "type": "bytes32"
        }
      ],
      "name": "getRoleAdmin",
      "outputs": [
        {
          "internalType": "bytes32",
          "name": "",
          "type": "bytes32"
        }
      ],
      "stateMutability": "view",
      "type": "function"
    },
    {
      "inputs": [
        {
          "internalType": "address",
          "name": "student",
          "type": "address"
        },
        {
          "internalType": "string",
          "name": "web2CourseId",
          "type": "string"
        }
      ],
      "name": "getStudentCertificates",
      "outputs": [
        {
          "internalType": "uint256[]",
          "name": "",
          "type": "uint256[]"
        }
      ],
      "stateMutability": "view",
      "type": "function"
    },
    {
      "inputs": [
        {
          "internalType": "bytes32",
          "name": "role",
          "type": "bytes32"
        },
        {
          "internalType": "address",
          "name": "account",
          "type": "address"
        }
      ],
      "name": "grantRole",
      "outputs": [],
      "stateMutability": "nonpayable",
      "type": "function"
    },
    {
      "inputs": [
        {
          "internalType": "address",
          "name": "student",
          "type": "address"
        },
        {
          "internalType": "string",
          "name": "web2CourseId",
          "type": "string"
        }
      ],
      "name": "hasCertificate",
      "outputs": [
        {
          "internalType": "bool",
          "name": "",
          "type": "bool"
        }
      ],
      "stateMutability": "view",
      "type": "function"
    },
    {
      "inputs": [
        {
          "internalType": "bytes32",
          "name": "role",
          "type": "bytes32"
        },
        {
          "internalType": "address",
          "name": "account",
          "type": "address"
        }
      ],
      "name": "hasRole",
      "outputs": [
        {
          "internalType": "bool",
          "name": "",
          "type": "bool"
        }
      ],
      "stateMutability": "view",
      "type": "function"
    },
    {
      "inputs": [
        {
          "internalType": "address",
          "name": "owner",
          "type": "address"
        },
        {
          "internalType": "address",
          "name": "operator",
          "type": "address"
        }
      ],
      "name": "isApprovedForAll",
      "outputs": [
        {
          "internalType": "bool",
          "name": "",
          "type": "bool"
        }
      ],
      "stateMutability": "view",
      "type": "function"
    },
    {
      "inputs": [
        {
          "internalType": "address",
          "name": "student",
          "type": "address"
        },
        {
          "internalType": "string",
          "name": "web2CourseId",
          "type": "string"
        },
        {
          "internalType": "string",
          "name": "metadataURI",
          "type": "string"
        }
      ],
      "name": "mintCertificate",
      "outputs": [
        {
          "internalType": "uint256",
          "name": "",
          "type": "uint256"
        }
      ],
      "stateMutability": "nonpayable",
      "type": "function"
    },
    {
      "inputs": [],
      "name": "name",
      "outputs": [
        {
          "internalType": "string",
          "name": "",
          "type": "string"
        }
      ],
      "stateMutability": "view",
      "type": "function"
    },
    {
      "inputs": [
        {
          "internalType": "uint256",
          "name": "tokenId",
          "type": "uint256"
        }
      ],
      "name": "ownerOf",
      "outputs": [
        {
          "internalType": "address",
          "name": "",
          "type": "address"
        }
      ],
      "stateMutability": "view",
      "type": "function"
    },
    {
      "inputs": [
        {
          "internalType": "bytes32",
          "name": "role",
          "type": "bytes32"
        },
        {
          "internalType": "address",
          "name": "account",
          "type": "address"
        }
      ],
      "name": "renounceRole",
      "outputs": [],
      "stateMutability": "nonpayable",
      "type": "function"
    },
    {
      "inputs": [
        {
          "internalType": "bytes32",
          "name": "role",
          "type": "bytes32"
        },
        {
          "internalType": "address",
          "name": "account",
          "type": "address"
        }
      ],
      "name": "revokeRole",
      "outputs": [],
      "stateMutability": "nonpayable",
      "type": "function"
    },
    {
      "inputs": [
        {
          "internalType": "address",
          "name": "from",
          "type": "address"
        },
        {
          "internalType": "address",
          "name": "to",
          "type": "address"
        },
        {
          "internalType": "uint256",
          "name": "tokenId",
          "type": "uint256"
        }
      ],
      "name": "safeTransferFrom",
      "outputs": [],
      "stateMutability": "nonpayable",
      "type": "function"
    },
    {
      "inputs": [
        {
          "internalType": "address",
          "name": "from",
          "type": "address"
        },
        {
          "internalType": "address",
          "name": "to",
          "type": "address"
        },
        {
          "internalType": "uint256",
          "name": "tokenId",
          "type": "uint256"
        },
        {
          "internalType": "bytes",
          "name": "data",
          "type": "bytes"
        }
      ],
      "name": "safeTransferFrom",
      "outputs": [],
      "stateMutability": "nonpayable",
      "type": "function"
    },
    {
      "inputs": [
        {
          "internalType": "address",
          "name": "operator",
          "type": "address"
        },
        {
          "internalType": "bool",
          "name": "approved",
          "type": "bool"
        }
      ],
      "name": "setApprovalForAll",
      "outputs": [],
      "stateMutability": "nonpayable",
      "type": "function"
    },
    {
      "inputs": [
        {
          "internalType": "string",
          "name": "",
          "type": "string"
        },
        {
          "internalType": "address",
          "name": "",
          "type": "address"
        },
        {
          "internalType": "uint256",
          "name": "",
          "type": "uint256"
        }
      ],
      "name": "studentCertificates",
      "outputs": [
        {
          "internalType": "uint256",
          "name": "",
          "type": "uint256"
        }
      ],
      "stateMutability": "view",
      "type": "function"
    },
    {
      "inputs": [
        {
          "internalType": "bytes4",
          "name": "interfaceId",
          "type": "bytes4"
        }
      ],
      "name": "supportsInterface",
      "outputs": [
        {
          "internalType": "bool",
          "name": "",
          "type": "bool"
        }
      ],
      "stateMutability": "view",
      "type": "function"
    },
    {
      "inputs": [],
      "name": "symbol",
      "outputs": [
        {
          "internalType": "string",
          "name": "",
          "type": "string"
        }
      ],
      "stateMutability": "view",
      "type": "function"
    },
    {
      "inputs": [
        {
          "internalType": "uint256",
          "name": "tokenId",
          "type": "uint256"
        }
      ],
      "name": "tokenURI",
      "outputs": [
        {
          "internalType": "string",
          "name": "",
          "type": "string"
        }
      ],
      "stateMutability": "view",
      "type": "function"
    },
    {
      "inputs": [
        {
          "internalType": "address",
          "name": "from",
          "type": "address"
        },
        {
          "internalType": "address",
          "name": "to",
          "type": "address"
        },
        {
          "internalType": "uint256",
          "name": "tokenId",
          "type": "uint256"
        }
      ],
      "name": "transferFrom",
      "outputs": [],
      "stateMutability": "nonpayable",
      "type": "function"
    }
  ],
  "bytecode": "0x608060405234801561001057600080fd5b506040518060400160405280601981526020017f596944656e6720436f75727365204365727469666963617465000000000000008152506040518060400160405280600481526020017f5944434300000000000000000000000000000000000000000000000000000000815250816000908161008c9190610497565b50806001908161009c9190610497565b5050506100b26000801b336100e760201b60201c565b6100e27f9f2df0fed2c77648de5860a4cc508cd0818c85b8b8a1ab4ceeef8d981c8956a6336100e760201b60201c565b610569565b6100f782826101d460201b60201c565b6101d05760016006600084815260200190815260200160002060000160008373ffffffffffffffffffffffffffffffffffffffff1673ffffffffffffffffffffffffffffffffffffffff16815260200190815260200160002060006101000a81548160ff02191690831515021790555061017561023f60201b60201c565b73ffffffffffffffffffffffffffffffffffffffff168173ffffffffffffffffffffffffffffffffffffffff16837f2f8788117e7eff1d82e926ec794901d17c78024a50270940304540a733656f0d60405160405180910390a45b5050565b60006006600084815260200190815260200160002060000160008373ffffffffffffffffffffffffffffffffffffffff1673ffffffffffffffffffffffffffffffffffffffff16815260200190815260200160002060009054906101000a900460ff16905092915050565b600033905090565b600081519050919050565b7f4e487b7100000000000000000000000000000000000000000000000000000000600052604160045260246000fd5b7f4e487b7100000000000000000000000000000000000000000000000000000000600052602260045260246000fd5b600060028204905060018216806102c857607f821691505b6020821081036102db576102da610281565b5b50919050565b60008190508160005260206000209050919050565b60006020601f8301049050919050565b600082821b905092915050565b6000600883026103437fffffffffffffffffffffffffffffffffffffffffffffffffffffffffffffffff82610306565b61034d8683610306565b95508019841693508086168417925050509392505050565b6000819050919050565b6000819050919050565b600061039461038f61038a84610365565b61036f565b610365565b9050919050565b6000819050919050565b6103ae83610379565b6103c26103ba8261039b565b848454610313565b825550505050565b600090565b6103d76103ca565b6103e28184846103a5565b505050565b5b81811015610406576103fb6000826103cf565b6001810190506103e8565b5050565b601f82111561044b5761041c816102e1565b610425846102f6565b81016020851015610434578190505b610448610440856102f6565b8301826103e7565b50505b505050565b600082821c905092915050565b600061046e60001984600802610450565b1980831691505092915050565b6000610487838361045d565b9150826002028217905092915050565b6104a082610247565b67ffffffffffffffff8111156104b9576104b8610252565b5b6104c382546102b0565b6104ce82828561040a565b600060209050601f83116001811461050157600084156104ef578287015190505b6104f9858261047b565b865550610561565b601f19841661050f866102e1565b60005b8281101561053757848901518255600182019150602085019450602081019050610512565b868310156105545784890151610550601f89168261045d565b8355505b6001600288020188555050505b505050505050565b613d8e806105786000396000f3fe608060405234801561001057600080fd5b50600436106101735760003560e01c8063663b3e22116100de578063a22cb46511610097578063d33f116511610071578063d33f1165146104a9578063d5391393146104d9578063d547741f146104f7578063e985e9c51461051357610173565b8063a22cb46514610441578063b88d4fde1461045d578063c87b56dd1461047957610173565b8063663b3e22146103425780636b55243d1461037557806370a08231146103a557806391d14854146103d557806395d89b4114610405578063a217fddf1461042357610173565b80632f2ff15d116101305780632f2ff15d1461025e57806336568abe1461027a5780633998b6fe146102965780633c433ebe146102c657806342842e0e146102f65780636352211e1461031257610173565b806301ffc9a71461017857806306fdde03146101a8578063081812fc146101c6578063095ea7b3146101f657806323b872dd14610212578063248a9ca31461022e575b600080fd5b610192600480360381019061018d9190612654565b610543565b60405161019f919061269c565b60405180910390f35b6101b0610555565b6040516101bd9190612747565b60405180910390f35b6101e060048036038101906101db919061279f565b6105e7565b6040516101ed919061280d565b60405180910390f35b610210600480360381019061020b9190612854565b61062d565b005b61022c60048036038101906102279190612894565b610744565b005b6102486004803603810190610243919061291d565b6107a4565b6040516102559190612959565b60405180910390f35b61027860048036038101906102739190612974565b6107c4565b005b610294600480360381019061028f9190612974565b6107e5565b005b6102b060048036038101906102ab9190612ae9565b610868565b6040516102bd9190612c03565b60405180910390f35b6102e060048036038101906102db9190612ae9565b61091c565b6040516102ed919061269c565b60405180910390f35b610310600480360381019061030b9190612894565b610987565b005b61032c6004803603810190610327919061279f565b6109a7565b604051610339919061280d565b60405180910390f35b61035c6004803603810190610357919061279f565b610a2d565b60405161036c9493929190612c34565b60405180910390f35b61038f600480360381019061038a9190612c87565b610b8d565b60405161039c9190612d12565b60405180910390f35b6103bf60048036038101906103ba9190612d2d565b610e38565b6040516103cc9190612d12565b60405180910390f35b6103ef60048036038101906103ea9190612974565b610eef565b6040516103fc919061269c565b60405180910390f35b61040d610f5a565b60405161041a9190612747565b60405180910390f35b61042b610fec565b6040516104389190612959565b60405180910390f35b61045b60048036038101906104569190612d86565b610ff3565b005b61047760048036038101906104729190612e67565b611009565b005b610493600480360381019061048e919061279f565b61106b565b6040516104a09190612747565b60405180910390f35b6104c360048036038101906104be9190612eea565b61115b565b6040516104d09190612d12565b60405180910390f35b6104e16111af565b6040516104ee9190612959565b60405180910390f35b610511600480360381019061050c9190612974565b6111d3565b005b61052d60048036038101906105289190612f59565b6111f4565b60405161053a919061269c565b60405180910390f35b600061054e82611288565b9050919050565b60606000805461056490612fc8565b80601f016020809104026020016040519081016040528092919081815260200182805461059090612fc8565b80156105dd5780601f106105b2576101008083540402835291602001916105dd565b820191906000526020600020905b8154815290600101906020018083116105c057829003601f168201915b5050505050905090565b60006105f282611302565b6004600083815260200190815260200160002060009054906101000a900473ffffffffffffffffffffffffffffffffffffffff169050919050565b6000610638826109a7565b90508073ffffffffffffffffffffffffffffffffffffffff168373ffffffffffffffffffffffffffffffffffffffff16036106a8576040517f08c379a000000000000000000000000000000000000000000000000000000000815260040161069f9061306b565b60405180910390fd5b8073ffffffffffffffffffffffffffffffffffffffff166106c761134d565b73ffffffffffffffffffffffffffffffffffffffff1614806106f657506106f5816106f061134d565b6111f4565b5b610735576040517f08c379a000000000000000000000000000000000000000000000000000000000815260040161072c906130fd565b60405180910390fd5b61073f8383611355565b505050565b61075561074f61134d565b8261140e565b610794576040517f08c379a000000000000000000000000000000000000000000000000000000000815260040161078b9061318f565b60405180910390fd5b61079f8383836114a3565b505050565b600060066000838152602001908152602001600020600101549050919050565b6107cd826107a4565b6107d68161179c565b6107e083836117b0565b505050565b6107ed61134d565b73ffffffffffffffffffffffffffffffffffffffff168173ffffffffffffffffffffffffffffffffffffffff161461085a576040517f08c379a000000000000000000000000000000000000000000000000000000000815260040161085190613221565b60405180910390fd5b6108648282611891565b5050565b606060098260405161087a919061327d565b908152602001604051809103902060008473ffffffffffffffffffffffffffffffffffffffff1673ffffffffffffffffffffffffffffffffffffffff16815260200190815260200160002080548060200260200160405190810160405280929190818152602001828054801561090f57602002820191906000526020600020905b8154815260200190600101908083116108fb575b5050505050905092915050565b60008060098360405161092f919061327d565b908152602001604051809103902060008573ffffffffffffffffffffffffffffffffffffffff1673ffffffffffffffffffffffffffffffffffffffff1681526020019081526020016000208054905011905092915050565b6109a283838360405180602001604052806000815250611009565b505050565b6000806109b383611973565b9050600073ffffffffffffffffffffffffffffffffffffffff168173ffffffffffffffffffffffffffffffffffffffff1603610a24576040517f08c379a0000000000000000000000000000000000000000000000000000000008152600401610a1b906132e0565b60405180910390fd5b80915050919050565b6008602052806000526040600020600091509050806000018054610a5090612fc8565b80601f0160208091040260200160405190810160405280929190818152602001828054610a7c90612fc8565b8015610ac95780601f10610a9e57610100808354040283529160200191610ac9565b820191906000526020600020905b815481529060010190602001808311610aac57829003601f168201915b5050505050908060010160009054906101000a900473ffffffffffffffffffffffffffffffffffffffff1690806002015490806003018054610b0a90612fc8565b80601f0160208091040260200160405190810160405280929190818152602001828054610b3690612fc8565b8015610b835780601f10610b5857610100808354040283529160200191610b83565b820191906000526020600020905b815481529060010190602001808311610b6657829003601f168201915b5050505050905084565b60007f9f2df0fed2c77648de5860a4cc508cd0818c85b8b8a1ab4ceeef8d981c8956a6610bb98161179c565b600073ffffffffffffffffffffffffffffffffffffffff168573ffffffffffffffffffffffffffffffffffffffff1603610c28576040517f08c379a0000000000000000000000000000000000000000000000000000000008152600401610c1f9061334c565b60405180910390fd5b610c3260016119b0565b610c3c6007611a49565b610c4660026119b0565b6000610c526007611a5f565b9050610c5f600382611a6d565b610c698682611b09565b610c7360046119b0565b60405180608001604052808681526020018773ffffffffffffffffffffffffffffffffffffffff16815260200142815260200185815250600860008381526020019081526020016000206000820151816000019081610cd29190613518565b5060208201518160010160006101000a81548173ffffffffffffffffffffffffffffffffffffffff021916908373ffffffffffffffffffffffffffffffffffffffff160217905550604082015181600201556060820151816003019081610d399190613518565b50905050610d4760056119b0565b600985604051610d57919061327d565b908152602001604051809103902060008773ffffffffffffffffffffffffffffffffffffffff1673ffffffffffffffffffffffffffffffffffffffff168152602001908152602001600020819080600181540180825580915050600190039060005260206000200160009091909190915055610dd360066119b0565b8573ffffffffffffffffffffffffffffffffffffffff16817f3a8294eea84a809a4e4f058c92870183809c74c7e705132fcbdc5e2b0e51d9f187604051610e1a9190612747565b60405180910390a3610e2c60076119b0565b80925050509392505050565b60008073ffffffffffffffffffffffffffffffffffffffff168273ffffffffffffffffffffffffffffffffffffffff1603610ea8576040517f08c379a0000000000000000000000000000000000000000000000000000000008152600401610e9f9061365c565b60405180910390fd5b600360008373ffffffffffffffffffffffffffffffffffffffff1673ffffffffffffffffffffffffffffffffffffffff168152602001908152602001600020549050919050565b60006006600084815260200190815260200160002060000160008373ffffffffffffffffffffffffffffffffffffffff1673ffffffffffffffffffffffffffffffffffffffff16815260200190815260200160002060009054906101000a900460ff16905092915050565b606060018054610f6990612fc8565b80601f0160208091040260200160405190810160405280929190818152602001828054610f9590612fc8565b8015610fe25780601f10610fb757610100808354040283529160200191610fe2565b820191906000526020600020905b815481529060010190602001808311610fc557829003601f168201915b5050505050905090565b6000801b81565b611005610ffe61134d565b8383611b27565b5050565b61101a61101461134d565b8361140e565b611059576040517f08c379a00000000000000000000000000000000000000000000000000000000081526004016110509061318f565b60405180910390fd5b61106584848484611c93565b50505050565b606061107682611cef565b6110b5576040517f08c379a00000000000000000000000000000000000000000000000000000000081526004016110ac906136c8565b60405180910390fd5b6008600083815260200190815260200160002060030180546110d690612fc8565b80601f016020809104026020016040519081016040528092919081815260200182805461110290612fc8565b801561114f5780601f106111245761010080835404028352916020019161114f565b820191906000526020600020905b81548152906001019060200180831161113257829003601f168201915b50505050509050919050565b600983805160208101820180518482526020830160208501208183528095505050505050602052816000526040600020818154811061119957600080fd5b9060005260206000200160009250925050505481565b7f9f2df0fed2c77648de5860a4cc508cd0818c85b8b8a1ab4ceeef8d981c8956a681565b6111dc826107a4565b6111e58161179c565b6111ef8383611891565b505050565b6000600560008473ffffffffffffffffffffffffffffffffffffffff1673ffffffffffffffffffffffffffffffffffffffff16815260200190815260200160002060008373ffffffffffffffffffffffffffffffffffffffff1673ffffffffffffffffffffffffffffffffffffffff16815260200190815260200160002060009054906101000a900460ff16905092915050565b60007f7965db0b000000000000000000000000000000000000000000000000000000007bffffffffffffffffffffffffffffffffffffffffffffffffffffffff1916827bffffffffffffffffffffffffffffffffffffffffffffffffffffffff191614806112fb57506112fa82611d30565b5b9050919050565b61130b81611cef565b61134a576040517f08c379a0000000000000000000000000000000000000000000000000000000008152600401611341906132e0565b60405180910390fd5b50565b600033905090565b816004600083815260200190815260200160002060006101000a81548173ffffffffffffffffffffffffffffffffffffffff021916908373ffffffffffffffffffffffffffffffffffffffff160217905550808273ffffffffffffffffffffffffffffffffffffffff166113c8836109a7565b73ffffffffffffffffffffffffffffffffffffffff167f8c5be1e5ebec7d5bd14f71427d1e84f3dd0314c0f7b2291e5b200ac8c7c3b92560405160405180910390a45050565b60008061141a836109a7565b90508073ffffffffffffffffffffffffffffffffffffffff168473ffffffffffffffffffffffffffffffffffffffff16148061145c575061145b81856111f4565b5b8061149a57508373ffffffffffffffffffffffffffffffffffffffff16611482846105e7565b73ffffffffffffffffffffffffffffffffffffffff16145b91505092915050565b8273ffffffffffffffffffffffffffffffffffffffff166114c3826109a7565b73ffffffffffffffffffffffffffffffffffffffff1614611519576040517f08c379a00000000000000000000000000000000000000000000000000000000081526004016115109061375a565b60405180910390fd5b600073ffffffffffffffffffffffffffffffffffffffff168273ffffffffffffffffffffffffffffffffffffffff1603611588576040517f08c379a000000000000000000000000000000000000000000000000000000000815260040161157f906137ec565b60405180910390fd5b6115958383836001611e12565b8273ffffffffffffffffffffffffffffffffffffffff166115b5826109a7565b73ffffffffffffffffffffffffffffffffffffffff161461160b576040517f08c379a00000000000000000000000000000000000000000000000000000000081526004016116029061375a565b60405180910390fd5b6004600082815260200190815260200160002060006101000a81549073ffffffffffffffffffffffffffffffffffffffff02191690556001600360008573ffffffffffffffffffffffffffffffffffffffff1673ffffffffffffffffffffffffffffffffffffffff168152602001908152602001600020600082825403925050819055506001600360008473ffffffffffffffffffffffffffffffffffffffff1673ffffffffffffffffffffffffffffffffffffffff16815260200190815260200160002060008282540192505081905550816002600083815260200190815260200160002060006101000a81548173ffffffffffffffffffffffffffffffffffffffff021916908373ffffffffffffffffffffffffffffffffffffffff160217905550808273ffffffffffffffffffffffffffffffffffffffff168473ffffffffffffffffffffffffffffffffffffffff167fddf252ad1be2c89b69c2b068fc378daa952ba7f163c4a11628f55a4df523b3ef60405160405180910390a46117978383836001611e18565b505050565b6117ad816117a861134d565b611e1e565b50565b6117ba8282610eef565b61188d5760016006600084815260200190815260200160002060000160008373ffffffffffffffffffffffffffffffffffffffff1673ffffffffffffffffffffffffffffffffffffffff16815260200190815260200160002060006101000a81548160ff02191690831515021790555061183261134d565b73ffffffffffffffffffffffffffffffffffffffff168173ffffffffffffffffffffffffffffffffffffffff16837f2f8788117e7eff1d82e926ec794901d17c78024a50270940304540a733656f0d60405160405180910390a45b5050565b61189b8282610eef565b1561196f5760006006600084815260200190815260200160002060000160008373ffffffffffffffffffffffffffffffffffffffff1673ffffffffffffffffffffffffffffffffffffffff16815260200190815260200160002060006101000a81548160ff02191690831515021790555061191461134d565b73ffffffffffffffffffffffffffffffffffffffff168173ffffffffffffffffffffffffffffffffffffffff16837ff6391f5c32d9c69d2a47ea670b442974b53935d1edc7fd64eb21e047a839171b60405160405180910390a45b5050565b60006002600083815260200190815260200160002060009054906101000a900473ffffffffffffffffffffffffffffffffffffffff169050919050565b611a46816040516024016119c49190612d12565b6040516020818303038152906040527ff82c50f1000000000000000000000000000000000000000000000000000000007bffffffffffffffffffffffffffffffffffffffffffffffffffffffff19166020820180517bffffffffffffffffffffffffffffffffffffffffffffffffffffffff8381831617835250505050611ea3565b50565b6001816000016000828254019250508190555050565b600081600001549050919050565b611b058282604051602401611a8392919061380c565b6040516020818303038152906040527ff666715a000000000000000000000000000000000000000000000000000000007bffffffffffffffffffffffffffffffffffffffffffffffffffffffff19166020820180517bffffffffffffffffffffffffffffffffffffffffffffffffffffffff8381831617835250505050611ea3565b5050565b611b23828260405180602001604052806000815250611ebd565b5050565b8173ffffffffffffffffffffffffffffffffffffffff168373ffffffffffffffffffffffffffffffffffffffff1603611b95576040517f08c379a0000000000000000000000000000000000000000000000000000000008152600401611b8c90613881565b60405180910390fd5b80600560008573ffffffffffffffffffffffffffffffffffffffff1673ffffffffffffffffffffffffffffffffffffffff16815260200190815260200160002060008473ffffffffffffffffffffffffffffffffffffffff1673ffffffffffffffffffffffffffffffffffffffff16815260200190815260200160002060006101000a81548160ff0219169083151502179055508173ffffffffffffffffffffffffffffffffffffffff168373ffffffffffffffffffffffffffffffffffffffff167f17307eab39ab6107e8899845ad3d59bd9653f200f220920489ca2b5937696c3183604051611c86919061269c565b60405180910390a3505050565b611c9e8484846114a3565b611caa84848484611f18565b611ce9576040517f08c379a0000000000000000000000000000000000000000000000000000000008152600401611ce090613913565b60405180910390fd5b50505050565b60008073ffffffffffffffffffffffffffffffffffffffff16611d1183611973565b73ffffffffffffffffffffffffffffffffffffffff1614159050919050565b60007f80ac58cd000000000000000000000000000000000000000000000000000000007bffffffffffffffffffffffffffffffffffffffffffffffffffffffff1916827bffffffffffffffffffffffffffffffffffffffffffffffffffffffff19161480611dfb57507f5b5e139f000000000000000000000000000000000000000000000000000000007bffffffffffffffffffffffffffffffffffffffffffffffffffffffff1916827bffffffffffffffffffffffffffffffffffffffffffffffffffffffff1916145b80611e0b5750611e0a8261209f565b5b9050919050565b50505050565b50505050565b611e288282610eef565b611e9f57611e3581612109565b611e438360001c6020612136565b604051602001611e549291906139cb565b6040516020818303038152906040526040517f08c379a0000000000000000000000000000000000000000000000000000000008152600401611e969190612747565b60405180910390fd5b5050565b611eba81611eb2612372612393565b63ffffffff16565b50565b611ec7838361239e565b611ed46000848484611f18565b611f13576040517f08c379a0000000000000000000000000000000000000000000000000000000008152600401611f0a90613913565b60405180910390fd5b505050565b6000611f398473ffffffffffffffffffffffffffffffffffffffff166125bb565b15612092578373ffffffffffffffffffffffffffffffffffffffff1663150b7a02611f6261134d565b8786866040518563ffffffff1660e01b8152600401611f849493929190613a5a565b6020604051808303816000875af1925050508015611fc057506040513d601f19601f82011682018060405250810190611fbd9190613abb565b60015b612042573d8060008114611ff0576040519150601f19603f3d011682016040523d82523d6000602084013e611ff5565b606091505b50600081510361203a576040517f08c379a000000000000000000000000000000000000000000000000000000000815260040161203190613913565b60405180910390fd5b805181602001fd5b63150b7a0260e01b7bffffffffffffffffffffffffffffffffffffffffffffffffffffffff1916817bffffffffffffffffffffffffffffffffffffffffffffffffffffffff191614915050612097565b600190505b949350505050565b60007f01ffc9a7000000000000000000000000000000000000000000000000000000007bffffffffffffffffffffffffffffffffffffffffffffffffffffffff1916827bffffffffffffffffffffffffffffffffffffffffffffffffffffffff1916149050919050565b606061212f8273ffffffffffffffffffffffffffffffffffffffff16601460ff16612136565b9050919050565b6060600060028360026121499190613b17565b6121539190613b59565b67ffffffffffffffff81111561216c5761216b6129be565b5b6040519080825280601f01601f19166020018201604052801561219e5781602001600182028036833780820191505090505b5090507f3000000000000000000000000000000000000000000000000000000000000000816000815181106121d6576121d5613b8d565b5b60200101907effffffffffffffffffffffffffffffffffffffffffffffffffffffffffffff1916908160001a9053507f78000000000000000000000000000000000000000000000000000000000000008160018151811061223a57612239613b8d565b5b60200101907effffffffffffffffffffffffffffffffffffffffffffffffffffffffffffff1916908160001a9053506000600184600261227a9190613b17565b6122849190613b59565b90505b6001811115612324577f3031323334353637383961626364656600000000000000000000000000000000600f8616601081106122c6576122c5613b8d565b5b1a60f81b8282815181106122dd576122dc613b8d565b5b60200101907effffffffffffffffffffffffffffffffffffffffffffffffffffffffffffff1916908160001a905350600485901c94508061231d90613bbc565b9050612287565b5060008414612368576040517f08c379a000000000000000000000000000000000000000000000000000000000815260040161235f90613c31565b60405180910390fd5b8091505092915050565b60006a636f6e736f6c652e6c6f679050600080835160208501845afa505050565b6125de819050919050565b600073ffffffffffffffffffffffffffffffffffffffff168273ffffffffffffffffffffffffffffffffffffffff160361240d576040517f08c379a000000000000000000000000000000000000000000000000000000000815260040161240490613c9d565b60405180910390fd5b61241681611cef565b15612456576040517f08c379a000000000000000000000000000000000000000000000000000000000815260040161244d90613d09565b60405180910390fd5b612464600083836001611e12565b61246d81611cef565b156124ad576040517f08c379a00000000000000000000000000000000000000000000000000000000081526004016124a490613d09565b60405180910390fd5b6001600360008473ffffffffffffffffffffffffffffffffffffffff1673ffffffffffffffffffffffffffffffffffffffff16815260200190815260200160002060008282540192505081905550816002600083815260200190815260200160002060006101000a81548173ffffffffffffffffffffffffffffffffffffffff021916908373ffffffffffffffffffffffffffffffffffffffff160217905550808273ffffffffffffffffffffffffffffffffffffffff16600073ffffffffffffffffffffffffffffffffffffffff167fddf252ad1be2c89b69c2b068fc378daa952ba7f163c4a11628f55a4df523b3ef60405160405180910390a46125b7600083836001611e18565b5050565b6000808273ffffffffffffffffffffffffffffffffffffffff163b119050919050565b6125e6613d29565b565b6000604051905090565b600080fd5b600080fd5b60007fffffffff0000000000000000000000000000000000000000000000000000000082169050919050565b612631816125fc565b811461263c57600080fd5b50565b60008135905061264e81612628565b92915050565b60006020828403121561266a576126696125f2565b5b60006126788482850161263f565b91505092915050565b60008115159050919050565b61269681612681565b82525050565b60006020820190506126b1600083018461268d565b92915050565b600081519050919050565b600082825260208201905092915050565b60005b838110156126f15780820151818401526020810190506126d6565b60008484015250505050565b6000601f19601f8301169050919050565b6000612719826126b7565b61272381856126c2565b93506127338185602086016126d3565b61273c816126fd565b840191505092915050565b60006020820190508181036000830152612761818461270e565b905092915050565b6000819050919050565b61277c81612769565b811461278757600080fd5b50565b60008135905061279981612773565b92915050565b6000602082840312156127b5576127b46125f2565b5b60006127c38482850161278a565b91505092915050565b600073ffffffffffffffffffffffffffffffffffffffff82169050919050565b60006127f7826127cc565b9050919050565b612807816127ec565b82525050565b600060208201905061282260008301846127fe565b92915050565b612831816127ec565b811461283c57600080fd5b50565b60008135905061284e81612828565b92915050565b6000806040838503121561286b5761286a6125f2565b5b60006128798582860161283f565b925050602061288a8582860161278a565b9150509250929050565b6000806000606084860312156128ad576128ac6125f2565b5b60006128bb8682870161283f565b93505060206128cc8682870161283f565b92505060406128dd8682870161278a565b9150509250925092565b6000819050919050565b6128fa816128e7565b811461290557600080fd5b50565b600081359050612917816128f1565b92915050565b600060208284031215612933576129326125f2565b5b600061294184828501612908565b91505092915050565b612953816128e7565b82525050565b600060208201905061296e600083018461294a565b92915050565b6000806040838503121561298b5761298a6125f2565b5b600061299985828601612908565b92505060206129aa8582860161283f565b9150509250929050565b600080fd5b600080fd5b7f4e487b7100000000000000000000000000000000000000000000000000000000600052604160045260246000fd5b6129f6826126fd565b810181811067ffffffffffffffff82111715612a1557612a146129be565b5b80604052505050565b6000612a286125e8565b9050612a3482826129ed565b919050565b600067ffffffffffffffff821115612a5457612a536129be565b5b612a5d826126fd565b9050602081019050919050565b82818337600083830152505050565b6000612a8c612a8784612a39565b612a1e565b905082815260208101848484011115612aa857612aa76129b9565b5b612ab3848285612a6a565b509392505050565b600082601f830112612ad057612acf6129b4565b5b8135612ae0848260208601612a79565b91505092915050565b60008060408385031215612b0057612aff6125f2565b5b6000612b0e8582860161283f565b925050602083013567ffffffffffffffff811115612b2f57612b2e6125f7565b5b612b3b85828601612abb565b9150509250929050565b600081519050919050565b600082825260208201905092915050565b6000819050602082019050919050565b612b7a81612769565b82525050565b6000612b8c8383612b71565b60208301905092915050565b6000602082019050919050565b6000612bb082612b45565b612bba8185612b50565b9350612bc583612b61565b8060005b83811015612bf6578151612bdd8882612b80565b9750612be883612b98565b925050600181019050612bc9565b5085935050505092915050565b60006020820190508181036000830152612c1d8184612ba5565b905092915050565b612c2e81612769565b82525050565b60006080820190508181036000830152612c4e818761270e565b9050612c5d60208301866127fe565b612c6a6040830185612c25565b8181036060830152612c7c818461270e565b905095945050505050565b600080600060608486031215612ca057612c9f6125f2565b5b6000612cae8682870161283f565b935050602084013567ffffffffffffffff811115612ccf57612cce6125f7565b5b612cdb86828701612abb565b925050604084013567ffffffffffffffff811115612cfc57612cfb6125f7565b5b612d0886828701612abb565b9150509250925092565b6000602082019050612d276000830184612c25565b92915050565b600060208284031215612d4357612d426125f2565b5b6000612d518482850161283f565b91505092915050565b612d6381612681565b8114612d6e57600080fd5b50565b600081359050612d8081612d5a565b92915050565b60008060408385031215612d9d57612d9c6125f2565b5b6000612dab8582860161283f565b9250506020612dbc85828601612d71565b9150509250929050565b600067ffffffffffffffff821115612de157612de06129be565b5b612dea826126fd565b9050602081019050919050565b6000612e0a612e0584612dc6565b612a1e565b905082815260208101848484011115612e2657612e256129b9565b5b612e31848285612a6a565b509392505050565b600082601f830112612e4e57612e4d6129b4565b5b8135612e5e848260208601612df7565b91505092915050565b60008060008060808587031215612e8157612e806125f2565b5b6000612e8f8782880161283f565b9450506020612ea08782880161283f565b9350506040612eb18782880161278a565b925050606085013567ffffffffffffffff811115612ed257612ed16125f7565b5b612ede87828801612e39565b91505092959194509250565b600080600060608486031215612f0357612f026125f2565b5b600084013567ffffffffffffffff811115612f2157612f206125f7565b5b612f2d86828701612abb565b9350506020612f3e8682870161283f565b9250506040612f4f8682870161278a565b9150509250925092565b60008060408385031215612f7057612f6f6125f2565b5b6000612f7e8582860161283f565b9250506020612f8f8582860161283f565b9150509250929050565b7f4e487b7100000000000000000000000000000000000000000000000000000000600052602260045260246000fd5b60006002820490506001821680612fe057607f821691505b602082108103612ff357612ff2612f99565b5b50919050565b7f4552433732313a20617070726f76616c20746f2063757272656e74206f776e6560008201527f7200000000000000000000000000000000000000000000000000000000000000602082015250565b60006130556021836126c2565b915061306082612ff9565b604082019050919050565b6000602082019050818103600083015261308481613048565b9050919050565b7f4552433732313a20617070726f76652063616c6c6572206973206e6f7420746f60008201527f6b656e206f776e6572206f7220617070726f76656420666f7220616c6c000000602082015250565b60006130e7603d836126c2565b91506130f28261308b565b604082019050919050565b60006020820190508181036000830152613116816130da565b9050919050565b7f4552433732313a2063616c6c6572206973206e6f7420746f6b656e206f776e6560008201527f72206f7220617070726f76656400000000000000000000000000000000000000602082015250565b6000613179602d836126c2565b91506131848261311d565b604082019050919050565b600060208201905081810360008301526131a88161316c565b9050919050565b7f416363657373436f6e74726f6c3a2063616e206f6e6c792072656e6f756e636560008201527f20726f6c657320666f722073656c660000000000000000000000000000000000602082015250565b600061320b602f836126c2565b9150613216826131af565b604082019050919050565b6000602082019050818103600083015261323a816131fe565b9050919050565b600081905092915050565b6000613257826126b7565b6132618185613241565b93506132718185602086016126d3565b80840191505092915050565b6000613289828461324c565b915081905092915050565b7f4552433732313a20696e76616c696420746f6b656e2049440000000000000000600082015250565b60006132ca6018836126c2565b91506132d582613294565b602082019050919050565b600060208201905081810360008301526132f9816132bd565b9050919050565b7f496e76616c69642073747564656e742061646472657373000000000000000000600082015250565b60006133366017836126c2565b915061334182613300565b602082019050919050565b6000602082019050818103600083015261336581613329565b9050919050565b60008190508160005260206000209050919050565b60006020601f8301049050919050565b600082821b905092915050565b6000600883026133ce7fffffffffffffffffffffffffffffffffffffffffffffffffffffffffffffffff82613391565b6133d88683613391565b95508019841693508086168417925050509392505050565b6000819050919050565b600061341561341061340b84612769565b6133f0565b612769565b9050919050565b6000819050919050565b61342f836133fa565b61344361343b8261341c565b84845461339e565b825550505050565b600090565b61345861344b565b613463818484613426565b505050565b5b818110156134875761347c600082613450565b600181019050613469565b5050565b601f8211156134cc5761349d8161336c565b6134a684613381565b810160208510156134b5578190505b6134c96134c185613381565b830182613468565b50505b505050565b600082821c905092915050565b60006134ef600019846008026134d1565b1980831691505092915050565b600061350883836134de565b9150826002028217905092915050565b613521826126b7565b67ffffffffffffffff81111561353a576135396129be565b5b6135448254612fc8565b61354f82828561348b565b600060209050601f8311600181146135825760008415613570578287015190505b61357a85826134fc565b8655506135e2565b601f1984166135908661336c565b60005b828110156135b857848901518255600182019150602085019450602081019050613593565b868310156135d557848901516135d1601f8916826134de565b8355505b6001600288020188555050505b505050505050565b7f4552433732313a2061646472657373207a65726f206973206e6f74206120766160008201527f6c6964206f776e65720000000000000000000000000000000000000000000000602082015250565b60006136466029836126c2565b9150613651826135ea565b604082019050919050565b6000602082019050818103600083015261367581613639565b9050919050565b7f436572746966696361746520646f6573206e6f74206578697374000000000000600082015250565b60006136b2601a836126c2565b91506136bd8261367c565b602082019050919050565b600060208201905081810360008301526136e1816136a5565b9050919050565b7f4552433732313a207472616e736665722066726f6d20696e636f72726563742060008201527f6f776e6572000000000000000000000000000000000000000000000000000000602082015250565b60006137446025836126c2565b915061374f826136e8565b604082019050919050565b6000602082019050818103600083015261377381613737565b9050919050565b7f4552433732313a207472616e7366657220746f20746865207a65726f2061646460008201527f7265737300000000000000000000000000000000000000000000000000000000602082015250565b60006137d66024836126c2565b91506137e18261377a565b604082019050919050565b60006020820190508181036000830152613805816137c9565b9050919050565b60006040820190506138216000830185612c25565b61382e6020830184612c25565b9392505050565b7f4552433732313a20617070726f766520746f2063616c6c657200000000000000600082015250565b600061386b6019836126c2565b915061387682613835565b602082019050919050565b6000602082019050818103600083015261389a8161385e565b9050919050565b7f4552433732313a207472616e7366657220746f206e6f6e20455243373231526560008201527f63656976657220696d706c656d656e7465720000000000000000000000000000602082015250565b60006138fd6032836126c2565b9150613908826138a1565b604082019050919050565b6000602082019050818103600083015261392c816138f0565b9050919050565b7f416363657373436f6e74726f6c3a206163636f756e7420000000000000000000600082015250565b6000613969601783613241565b915061397482613933565b601782019050919050565b7f206973206d697373696e6720726f6c6520000000000000000000000000000000600082015250565b60006139b5601183613241565b91506139c08261397f565b601182019050919050565b60006139d68261395c565b91506139e2828561324c565b91506139ed826139a8565b91506139f9828461324c565b91508190509392505050565b600081519050919050565b600082825260208201905092915050565b6000613a2c82613a05565b613a368185613a10565b9350613a468185602086016126d3565b613a4f816126fd565b840191505092915050565b6000608082019050613a6f60008301876127fe565b613a7c60208301866127fe565b613a896040830185612c25565b8181036060830152613a9b8184613a21565b905095945050505050565b600081519050613ab581612628565b92915050565b600060208284031215613ad157613ad06125f2565b5b6000613adf84828501613aa6565b91505092915050565b7f4e487b7100000000000000000000000000000000000000000000000000000000600052601160045260246000fd5b6000613b2282612769565b9150613b2d83612769565b9250828202613b3b81612769565b91508282048414831517613b5257613b51613ae8565b5b5092915050565b6000613b6482612769565b9150613b6f83612769565b9250828201905080821115613b8757613b86613ae8565b5b92915050565b7f4e487b7100000000000000000000000000000000000000000000000000000000600052603260045260246000fd5b6000613bc782612769565b915060008203613bda57613bd9613ae8565b5b600182039050919050565b7f537472696e67733a20686578206c656e67746820696e73756666696369656e74600082015250565b6000613c1b6020836126c2565b9150613c2682613be5565b602082019050919050565b60006020820190508181036000830152613c4a81613c0e565b9050919050565b7f4552433732313a206d696e7420746f20746865207a65726f2061646472657373600082015250565b6000613c876020836126c2565b9150613c9282613c51565b602082019050919050565b60006020820190508181036000830152613cb681613c7a565b9050919050565b7f4552433732313a20746f6b656e20616c7265616479206d696e74656400000000600082015250565b6000613cf3601c836126c2565b9150613cfe82613cbd565b602082019050919050565b60006020820190508181036000830152613d2281613ce6565b9050919050565b7f4e487b7100000000000000000000000000000000000000000000000000000000600052605160045260246000fdfea26469706673582212205637ea6588e680ba11839ecbbb56609867d538541b3e51ccaee93ca113835e1964736f6c634300081c0033",
  "linkReferences": {},
  "deployedLinkReferences": {}
}